:0E0000000A128A11032883010A128A110828A5
:100010000A128A1110200A128A110A128A11002863
:100020000030F4000130F5000030F000F1007408F9
:10003000F2007508F3000A128A1130200A128A11A0
:100040000130F4070318F50A0030F5071030750287
:10005000003003197402031C2E282F2814280800CE
:10006000831603178C183528362830287208831217
:1000700003178F0073088D0071088E0070088C00C4
:10008000831603178C170C158B1355308D00AA306F
:100090008D008C1400000000831603170C1108005B
:02400E00B93FB8
:00000001FF
